:100000000C9434000C943E000C943E000C943E0082
:100010000C943E000C943E000C943E000C943E0068
:100020000C943E000C943E000C943E000C943E0058
:100030000C943E000C943E000C943E000C943E0048
:100040000C943E000C943E000C943E000C943E0038
:100050000C943E000C943E000C943E000C943E0028
:100060000C943E000C943E0011241FBECFEFD8E04C
:10007000DEBFCDBF0E9474000C949A000C94000067
:1000800090E0981301C008952D9A2FEF31EE44E0CF
:10009000215030404040E1F700C000002D982FEF84
:1000A00031EE44E0215030404040E1F700C0000014
:1000B0009F5FE7CF90E0981301C008952D9A2FEF2E
:1000C00035EA4EE0215030404040E1F700C00000EA
:1000D0002D982FEF31EE44E0215030404040E1F7C1
:1000E00000C000009F5FE7CF259A83E00E94400098
:1000F0002FEF85EA9EE0215080409040E1F700C05C
:10010000000083E00E945A002FEF85EA9EE0215014
:1001100080409040E1F700C0000083E00E94400072
:100120002FEF85EA9EE0215080409040E1F700C02B
:080130000000DBCFF894FFCFC3
:00000001FF
